{
  "_format": "hh-sol-artifact-1",
  "contractName": "CountryStamp",
  "sourceName": "contracts/CountryStamp.sol",
  "abi": [
    {
      "inputs": [
        {
          "internalType": "string",
          "name": "_countryName",
          "type": "string"
        },
        {
          "internalType": "string",
          "name": "_currency",
          "type": "string"
        },
        {
          "internalType": "string",
          "name": "_dataUri",
          "type": "string"
        }
      ],
      "stateMutability": "nonpayable",
      "type": "constructor"
    },
    {
      "anonymous": false,
      "inputs": [
        {
          "indexed": true,
          "internalType": "address",
          "name": "owner",
          "type": "address"
        },
        {
          "indexed": true,
          "internalType": "address",
          "name": "approved",
          "type": "address"
        },
        {
          "indexed": true,
          "internalType": "uint256",
          "name": "tokenId",
          "type": "uint256"
        }
      ],
      "name": "Approval",
      "type": "event"
    },
    {
      "anonymous": false,
      "inputs": [
        {
          "indexed": true,
          "internalType": "address",
          "name": "owner",
          "type": "address"
        },
        {
          "indexed": true,
          "internalType": "address",
          "name": "operator",
          "type": "address"
        },
        {
          "indexed": false,
          "internalType": "bool",
          "name": "approved",
          "type": "bool"
        }
      ],
      "name": "ApprovalForAll",
      "type": "event"
    },
    {
      "anonymous": false,
      "inputs": [
        {
          "indexed": true,
          "internalType": "address",
          "name": "from",
          "type": "address"
        },
        {
          "indexed": true,
          "internalType": "address",
          "name": "to",
          "type": "address"
        },
        {
          "indexed": true,
          "internalType": "uint256",
          "name": "tokenId",
          "type": "uint256"
        }
      ],
      "name": "Transfer",
      "type": "event"
    },
    {
      "inputs": [
        {
          "internalType": "address",
          "name": "to",
          "type": "address"
        },
        {
          "internalType": "uint256",
          "name": "tokenId",
          "type": "uint256"
        }
      ],
      "name": "approve",
      "outputs": [],
      "stateMutability": "nonpayable",
      "type": "function"
    },
    {
      "inputs": [
        {
          "internalType": "address",
          "name": "owner",
          "type": "address"
        }
      ],
      "name": "balanceOf",
      "outputs": [
        {
          "internalType": "uint256",
          "name": "",
          "type": "uint256"
        }
      ],
      "stateMutability": "view",
      "type": "function"
    },
    {
      "inputs": [],
      "name": "countryName",
      "outputs": [
        {
          "internalType": "string",
          "name": "",
          "type": "string"
        }
      ],
      "stateMutability": "view",
      "type": "function"
    },
    {
      "inputs": [],
      "name": "currency",
      "outputs": [
        {
          "internalType": "string",
          "name": "",
          "type": "string"
        }
      ],
      "stateMutability": "view",
      "type": "function"
    },
    {
      "inputs": [],
      "name": "dataUri",
      "outputs": [
        {
          "internalType": "string",
          "name": "",
          "type": "string"
        }
      ],
      "stateMutability": "view",
      "type": "function"
    },
    {
      "inputs": [
        {
          "internalType": "uint256",
          "name": "tokenId",
          "type": "uint256"
        }
      ],
      "name": "getApproved",
      "outputs": [
        {
          "internalType": "address",
          "name": "",
          "type": "address"
        }
      ],
      "stateMutability": "view",
      "type": "function"
    },
    {
      "inputs": [
        {
          "internalType": "address",
          "name": "owner",
          "type": "address"
        },
        {
          "internalType": "address",
          "name": "operator",
          "type": "address"
        }
      ],
      "name": "isApprovedForAll",
      "outputs": [
        {
          "internalType": "bool",
          "name": "",
          "type": "bool"
        }
      ],
      "stateMutability": "view",
      "type": "function"
    },
    {
      "inputs": [],
      "name": "name",
      "outputs": [
        {
          "internalType": "string",
          "name": "",
          "type": "string"
        }
      ],
      "stateMutability": "view",
      "type": "function"
    },
    {
      "inputs": [
        {
          "internalType": "uint256",
          "name": "tokenId",
          "type": "uint256"
        }
      ],
      "name": "ownerOf",
      "outputs": [
        {
          "internalType": "address",
          "name": "",
          "type": "address"
        }
      ],
      "stateMutability": "view",
      "type": "function"
    },
    {
      "inputs": [
        {
          "internalType": "address",
          "name": "caller",
          "type": "address"
        }
      ],
      "name": "registerStamp",
      "outputs": [
        {
          "internalType": "uint256",
          "name": "",
          "type": "uint256"
        }
      ],
      "stateMutability": "nonpayable",
      "type": "function"
    },
    {
      "inputs": [
        {
          "internalType": "address",
          "name": "from",
          "type": "address"
        },
        {
          "internalType": "address",
          "name": "to",
          "type": "address"
        },
        {
          "internalType": "uint256",
          "name": "tokenId",
          "type": "uint256"
        }
      ],
      "name": "safeTransferFrom",
      "outputs": [],
      "stateMutability": "nonpayable",
      "type": "function"
    },
    {
      "inputs": [
        {
          "internalType": "address",
          "name": "from",
          "type": "address"
        },
        {
          "internalType": "address",
          "name": "to",
          "type": "address"
        },
        {
          "internalType": "uint256",
          "name": "tokenId",
          "type": "uint256"
        },
        {
          "internalType": "bytes",
          "name": "_data",
          "type": "bytes"
        }
      ],
      "name": "safeTransferFrom",
      "outputs": [],
      "stateMutability": "nonpayable",
      "type": "function"
    },
    {
      "inputs": [
        {
          "internalType": "address",
          "name": "operator",
          "type": "address"
        },
        {
          "internalType": "bool",
          "name": "approved",
          "type": "bool"
        }
      ],
      "name": "setApprovalForAll",
      "outputs": [],
      "stateMutability": "nonpayable",
      "type": "function"
    },
    {
      "inputs": [
        {
          "internalType": "bytes4",
          "name": "interfaceId",
          "type": "bytes4"
        }
      ],
      "name": "supportsInterface",
      "outputs": [
        {
          "internalType": "bool",
          "name": "",
          "type": "bool"
        }
      ],
      "stateMutability": "view",
      "type": "function"
    },
    {
      "inputs": [],
      "name": "symbol",
      "outputs": [
        {
          "internalType": "string",
          "name": "",
          "type": "string"
        }
      ],
      "stateMutability": "view",
      "type": "function"
    },
    {
      "inputs": [
        {
          "internalType": "uint256",
          "name": "tokenId",
          "type": "uint256"
        }
      ],
      "name": "tokenURI",
      "outputs": [
        {
          "internalType": "string",
          "name": "",
          "type": "string"
        }
      ],
      "stateMutability": "view",
      "type": "function"
    },
    {
      "inputs": [
        {
          "internalType": "address",
          "name": "from",
          "type": "address"
        },
        {
          "internalType": "address",
          "name": "to",
          "type": "address"
        },
        {
          "internalType": "uint256",
          "name": "tokenId",
          "type": "uint256"
        }
      ],
      "name": "transferFrom",
      "outputs": [],
      "stateMutability": "nonpayable",
      "type": "function"
    }
  ],
  "bytecode": "0x60806040523480156200001157600080fd5b506040516200353d3803806200353d83398181016040528101906200003791906200025e565b828281600090816200004a919062000562565b5080600190816200005c919062000562565b505050826008908162000070919062000562565b50816009908162000082919062000562565b5080600a908162000094919062000562565b50620000ac6007620000b560201b62000dd31760201c565b50505062000649565b6001816000016000828254019250508190555050565b6000604051905090565b600080fd5b600080fd5b600080fd5b600080fd5b6000601f19601f8301169050919050565b7f4e487b7100000000000000000000000000000000000000000000000000000000600052604160045260246000fd5b6200013482620000e9565b810181811067ffffffffffffffff82111715620001565762000155620000fa565b5b80604052505050565b60006200016b620000cb565b905062000179828262000129565b919050565b600067ffffffffffffffff8211156200019c576200019b620000fa565b5b620001a782620000e9565b9050602081019050919050565b60005b83811015620001d4578082015181840152602081019050620001b7565b60008484015250505050565b6000620001f7620001f1846200017e565b6200015f565b905082815260208101848484011115620002165762000215620000e4565b5b62000223848285620001b4565b509392505050565b600082601f830112620002435762000242620000df565b5b815162000255848260208601620001e0565b91505092915050565b6000806000606084860312156200027a5762000279620000d5565b5b600084015167ffffffffffffffff8111156200029b576200029a620000da565b5b620002a9868287016200022b565b935050602084015167ffffffffffffffff811115620002cd57620002cc620000da565b5b620002db868287016200022b565b925050604084015167ffffffffffffffff811115620002ff57620002fe620000da565b5b6200030d868287016200022b565b9150509250925092565b600081519050919050565b7f4e487b7100000000000000000000000000000000000000000000000000000000600052602260045260246000fd5b600060028204905060018216806200036a57607f821691505b60208210810362000380576200037f62000322565b5b50919050565b60008190508160005260206000209050919050565b60006020601f8301049050919050565b600082821b905092915050565b600060088302620003ea7fffffffffffffffffffffffffffffffffffffffffffffffffffffffffffffffff82620003ab565b620003f68683620003ab565b95508019841693508086168417925050509392505050565b6000819050919050565b6000819050919050565b6000620004436200043d62000437846200040e565b62000418565b6200040e565b9050919050565b6000819050919050565b6200045f8362000422565b620004776200046e826200044a565b848454620003b8565b825550505050565b600090565b6200048e6200047f565b6200049b81848462000454565b505050565b5b81811015620004c357620004b760008262000484565b600181019050620004a1565b5050565b601f8211156200051257620004dc8162000386565b620004e7846200039b565b81016020851015620004f7578190505b6200050f62000506856200039b565b830182620004a0565b50505b505050565b600082821c905092915050565b6000620005376000198460080262000517565b1980831691505092915050565b600062000552838362000524565b9150826002028217905092915050565b6200056d8262000317565b67ffffffffffffffff811115620005895762000588620000fa565b5b62000595825462000351565b620005a2828285620004c7565b600060209050601f831160018114620005da5760008415620005c5578287015190505b620005d1858262000544565b86555062000641565b601f198416620005ea8662000386565b60005b828110156200061457848901518255600182019150602085019450602081019050620005ed565b8683101562000634578489015162000630601f89168262000524565b8355505b6001600288020188555050505b505050505050565b612ee480620006596000396000f3fe608060405234801561001057600080fd5b506004361061010b5760003560e01c806370a08231116100a2578063a22cb46511610071578063a22cb465146102cc578063b88d4fde146102e8578063c87b56dd14610304578063e5a6b10f14610334578063e985e9c5146103525761010b565b806370a082311461023057806383534d2d146102605780638a9b29eb1461029057806395d89b41146102ae5761010b565b806323b872dd116100de57806323b872dd146101aa5780633f829957146101c657806342842e0e146101e45780636352211e146102005761010b565b806301ffc9a71461011057806306fdde0314610140578063081812fc1461015e578063095ea7b31461018e575b600080fd5b61012a60048036038101906101259190611af2565b610382565b6040516101379190611b3a565b60405180910390f35b610148610464565b6040516101559190611be5565b60405180910390f35b61017860048036038101906101739190611c3d565b6104f6565b6040516101859190611cab565b60405180910390f35b6101a860048036038101906101a39190611cf2565b61057b565b005b6101c460048036038101906101bf9190611d32565b610692565b005b6101ce6106f2565b6040516101db9190611be5565b60405180910390f35b6101fe60048036038101906101f99190611d32565b610780565b005b61021a60048036038101906102159190611c3d565b6107a0565b6040516102279190611cab565b60405180910390f35b61024a60048036038101906102459190611d85565b610851565b6040516102579190611dc1565b60405180910390f35b61027a60048036038101906102759190611d85565b610908565b6040516102879190611dc1565b60405180910390f35b6102986109c8565b6040516102a59190611be5565b60405180910390f35b6102b6610a56565b6040516102c39190611be5565b60405180910390f35b6102e660048036038101906102e19190611e08565b610ae8565b005b61030260048036038101906102fd9190611f7d565b610afe565b005b61031e60048036038101906103199190611c3d565b610b60565b60405161032b9190611be5565b60405180910390f35b61033c610cb1565b6040516103499190611be5565b60405180910390f35b61036c60048036038101906103679190612000565b610d3f565b6040516103799190611b3a565b60405180910390f35b60007f80ac58cd000000000000000000000000000000000000000000000000000000007bffffffffffffffffffffffffffffffffffffffffffffffffffffffff1916827bffffffffffffffffffffffffffffffffffffffffffffffffffffffff1916148061044d57507f5b5e139f000000000000000000000000000000000000000000000000000000007bffffffffffffffffffffffffffffffffffffffffffffffffffffffff1916827bffffffffffffffffffffffffffffffffffffffffffffffffffffffff1916145b8061045d575061045c82610de9565b5b9050919050565b6060600080546104739061206f565b80601f016020809104026020016040519081016040528092919081815260200182805461049f9061206f565b80156104ec5780601f106104c1576101008083540402835291602001916104ec565b820191906000526020600020905b8154815290600101906020018083116104cf57829003601f168201915b5050505050905090565b600061050182610e53565b610540576040517f08c379a000000000000000000000000000000000000000000000000000000000815260040161053790612112565b60405180910390fd5b6004600083815260200190815260200160002060009054906101000a900473ffffffffffffffffffffffffffffffffffffffff169050919050565b6000610586826107a0565b90508073ffffffffffffffffffffffffffffffffffffffff168373ffffffffffffffffffffffffffffffffffffffff16036105f6576040517f08c379a00000000000000000000000000000000000000000000000000000000081526004016105ed906121a4565b60405180910390fd5b8073ffffffffffffffffffffffffffffffffffffffff16610615610ebf565b73ffffffffffffffffffffffffffffffffffffffff16148061064457506106438161063e610ebf565b610d3f565b5b610683576040517f08c379a000000000000000000000000000000000000000000000000000000000815260040161067a90612236565b60405180910390fd5b61068d8383610ec7565b505050565b6106a361069d610ebf565b82610f80565b6106e2576040517f08c379a00000000000000000000000000000000000000000000000000000000081526004016106d9906122c8565b60405180910390fd5b6106ed83838361105e565b505050565b600880546106ff9061206f565b80601f016020809104026020016040519081016040528092919081815260200182805461072b9061206f565b80156107785780601f1061074d57610100808354040283529160200191610778565b820191906000526020600020905b81548152906001019060200180831161075b57829003601f168201915b505050505081565b61079b83838360405180602001604052806000815250610afe565b505050565b6000806002600084815260200190815260200160002060009054906101000a900473ffffffffffffffffffffffffffffffffffffffff169050600073ffffffffffffffffffffffffffffffffffffffff168173ffffffffffffffffffffffffffffffffffffffff1603610848576040517f08c379a000000000000000000000000000000000000000000000000000000000815260040161083f9061235a565b60405180910390fd5b80915050919050565b60008073ffffffffffffffffffffffffffffffffffffffff168273ffffffffffffffffffffffffffffffffffffffff16036108c1576040517f08c379a00000000000000000000000000000000000000000000000000000000081526004016108b8906123ec565b60405180910390fd5b600360008373ffffffffffffffffffffffffffffffffffffffff1673ffffffffffffffffffffffffffffffffffffffff168152602001908152602001600020549050919050565b60008061091560076112b9565b90506109216007610dd3565b61092b83826112c7565b6109bf81600a805461093c9061206f565b80601f01602080910402602001604051908101604052809291908181526020018280546109689061206f565b80156109b55780601f1061098a576101008083540402835291602001916109b5565b820191906000526020600020905b81548152906001019060200180831161099857829003601f168201915b5050505050611494565b80915050919050565b600a80546109d59061206f565b80601f0160208091040260200160405190810160405280929190818152602001828054610a019061206f565b8015610a4e5780601f10610a2357610100808354040283529160200191610a4e565b820191906000526020600020905b815481529060010190602001808311610a3157829003601f168201915b505050505081565b606060018054610a659061206f565b80601f0160208091040260200160405190810160405280929190818152602001828054610a919061206f565b8015610ade5780601f10610ab357610100808354040283529160200191610ade565b820191906000526020600020905b815481529060010190602001808311610ac157829003601f168201915b5050505050905090565b610afa610af3610ebf565b8383611501565b5050565b610b0f610b09610ebf565b83610f80565b610b4e576040517f08c379a0000000000000000000000000000000000000000000000000000000008152600401610b45906122c8565b60405180910390fd5b610b5a8484848461166d565b50505050565b6060610b6b82610e53565b610baa576040517f08c379a0000000000000000000000000000000000000000000000000000000008152600401610ba19061247e565b60405180910390fd5b6000600660008481526020019081526020016000208054610bca9061206f565b80601f0160208091040260200160405190810160405280929190818152602001828054610bf69061206f565b8015610c435780601f10610c1857610100808354040283529160200191610c43565b820191906000526020600020905b815481529060010190602001808311610c2657829003601f168201915b505050505090506000610c546116c9565b90506000815103610c69578192505050610cac565b600082511115610c9e578082604051602001610c869291906124da565b60405160208183030381529060405292505050610cac565b610ca7846116e0565b925050505b919050565b60098054610cbe9061206f565b80601f0160208091040260200160405190810160405280929190818152602001828054610cea9061206f565b8015610d375780601f10610d0c57610100808354040283529160200191610d37565b820191906000526020600020905b815481529060010190602001808311610d1a57829003601f168201915b505050505081565b6000600560008473ffffffffffffffffffffffffffffffffffffffff1673ffffffffffffffffffffffffffffffffffffffff16815260200190815260200160002060008373ffffffffffffffffffffffffffffffffffffffff1673ffffffffffffffffffffffffffffffffffffffff16815260200190815260200160002060009054906101000a900460ff16905092915050565b6001816000016000828254019250508190555050565b60007f01ffc9a7000000000000000000000000000000000000000000000000000000007bffffffffffffffffffffffffffffffffffffffffffffffffffffffff1916827bffffffffffffffffffffffffffffffffffffffffffffffffffffffff1916149050919050565b60008073ffffffffffffffffffffffffffffffffffffffff166002600084815260200190815260200160002060009054906101000a900473ffffffffffffffffffffffffffffffffffffffff1673ffffffffffffffffffffffffffffffffffffffff1614159050919050565b600033905090565b816004600083815260200190815260200160002060006101000a81548173ffffffffffffffffffffffffffffffffffffffff021916908373ffffffffffffffffffffffffffffffffffffffff160217905550808273ffffffffffffffffffffffffffffffffffffffff16610f3a836107a0565b73ffffffffffffffffffffffffffffffffffffffff167f8c5be1e5ebec7d5bd14f71427d1e84f3dd0314c0f7b2291e5b200ac8c7c3b92560405160405180910390a45050565b6000610f8b82610e53565b610fca576040517f08c379a0000000000000000000000000000000000000000000000000000000008152600401610fc190612570565b60405180910390fd5b6000610fd5836107a0565b90508073ffffffffffffffffffffffffffffffffffffffff168473ffffffffffffffffffffffffffffffffffffffff16148061104457508373ffffffffffffffffffffffffffffffffffffffff1661102c846104f6565b73ffffffffffffffffffffffffffffffffffffffff16145b8061105557506110548185610d3f565b5b91505092915050565b8273ffffffffffffffffffffffffffffffffffffffff1661107e826107a0565b73ffffffffffffffffffffffffffffffffffffffff16146110d4576040517f08c379a00000000000000000000000000000000000000000000000000000000081526004016110cb90612602565b60405180910390fd5b600073ffffffffffffffffffffffffffffffffffffffff168273ffffffffffffffffffffffffffffffffffffffff1603611143576040517f08c379a000000000000000000000000000000000000000000000000000000000815260040161113a90612694565b60405180910390fd5b61114e838383611787565b611159600082610ec7565b6001600360008573ffffffffffffffffffffffffffffffffffffffff1673ffffffffffffffffffffffffffffffffffffffff16815260200190815260200160002060008282546111a991906126e3565b925050819055506001600360008473ffffffffffffffffffffffffffffffffffffffff1673ffffffffffffffffffffffffffffffffffffffff16815260200190815260200160002060008282546112009190612717565b92505081905550816002600083815260200190815260200160002060006101000a81548173ffffffffffffffffffffffffffffffffffffffff021916908373ffffffffffffffffffffffffffffffffffffffff160217905550808273ffffffffffffffffffffffffffffffffffffffff168473ffffffffffffffffffffffffffffffffffffffff167fddf252ad1be2c89b69c2b068fc378daa952ba7f163c4a11628f55a4df523b3ef60405160405180910390a4505050565b600081600001549050919050565b600073ffffffffffffffffffffffffffffffffffffffff168273ffffffffffffffffffffffffffffffffffffffff1603611336576040517f08c379a000000000000000000000000000000000000000000000000000000000815260040161132d90612797565b60405180910390fd5b61133f81610e53565b1561137f576040517f08c379a000000000000000000000000000000000000000000000000000000000815260040161137690612803565b60405180910390fd5b61138b60008383611787565b6001600360008473ffffffffffffffffffffffffffffffffffffffff1673ffffffffffffffffffffffffffffffffffffffff16815260200190815260200160002060008282546113db9190612717565b92505081905550816002600083815260200190815260200160002060006101000a81548173ffffffffffffffffffffffffffffffffffffffff021916908373ffffffffffffffffffffffffffffffffffffffff160217905550808273ffffffffffffffffffffffffffffffffffffffff16600073ffffffffffffffffffffffffffffffffffffffff167fddf252ad1be2c89b69c2b068fc378daa952ba7f163c4a11628f55a4df523b3ef60405160405180910390a45050565b61149d82610e53565b6114dc576040517f08c379a00000000000000000000000000000000000000000000000000000000081526004016114d390612895565b60405180910390fd5b806006600084815260200190815260200160002090816114fc9190612a61565b505050565b8173ffffffffffffffffffffffffffffffffffffffff168373ffffffffffffffffffffffffffffffffffffffff160361156f576040517f08c379a000000000000000000000000000000000000000000000000000000000815260040161156690612b7f565b60405180910390fd5b80600560008573ffffffffffffffffffffffffffffffffffffffff1673ffffffffffffffffffffffffffffffffffffffff16815260200190815260200160002060008473ffffffffffffffffffffffffffffffffffffffff1673ffffffffffffffffffffffffffffffffffffffff16815260200190815260200160002060006101000a81548160ff0219169083151502179055508173ffffffffffffffffffffffffffffffffffffffff168373ffffffffffffffffffffffffffffffffffffffff167f17307eab39ab6107e8899845ad3d59bd9653f200f220920489ca2b5937696c31836040516116609190611b3a565b60405180910390a3505050565b61167884848461105e565b6116848484848461178c565b6116c3576040517f08c379a00000000000000000000000000000000000000000000000000000000081526004016116ba90612c11565b60405180910390fd5b50505050565b606060405180602001604052806000815250905090565b60606116eb82610e53565b61172a576040517f08c379a000000000000000000000000000000000000000000000000000000000815260040161172190612ca3565b60405180910390fd5b60006117346116c9565b90506000815111611754576040518060200160405280600081525061177f565b8061175e84611913565b60405160200161176f9291906124da565b6040516020818303038152906040525b915050919050565b505050565b60006117ad8473ffffffffffffffffffffffffffffffffffffffff16611a73565b15611906578373ffffffffffffffffffffffffffffffffffffffff1663150b7a026117d6610ebf565b8786866040518563ffffffff1660e01b81526004016117f89493929190612d18565b6020604051808303816000875af192505050801561183457506040513d601f19601f820116820180604052508101906118319190612d79565b60015b6118b6573d8060008114611864576040519150601f19603f3d011682016040523d82523d6000602084013e611869565b606091505b5060008151036118ae576040517f08c379a00000000000000000000000000000000000000000000000000000000081526004016118a590612c11565b60405180910390fd5b805181602001fd5b63150b7a0260e01b7bffffffffffffffffffffffffffffffffffffffffffffffffffffffff1916817bffffffffffffffffffffffffffffffffffffffffffffffffffffffff19161491505061190b565b600190505b949350505050565b60606000820361195a576040518060400160405280600181526020017f30000000000000000000000000000000000000000000000000000000000000008152509050611a6e565b600082905060005b6000821461198c57808061197590612da6565b915050600a826119859190612e1d565b9150611962565b60008167ffffffffffffffff8111156119a8576119a7611e52565b5b6040519080825280601f01601f1916602001820160405280156119da5781602001600182028036833780820191505090505b5090505b60008514611a67576001826119f391906126e3565b9150600a85611a029190612e4e565b6030611a0e9190612717565b60f81b818381518110611a2457611a23612e7f565b5b60200101907effffffffffffffffffffffffffffffffffffffffffffffffffffffffffffff1916908160001a905350600a85611a609190612e1d565b94506119de565b8093505050505b919050565b600080823b905060008111915050919050565b6000604051905090565b600080fd5b600080fd5b60007fffffffff0000000000000000000000000000000000000000000000000000000082169050919050565b611acf81611a9a565b8114611ada57600080fd5b50565b600081359050611aec81611ac6565b92915050565b600060208284031215611b0857611b07611a90565b5b6000611b1684828501611add565b91505092915050565b60008115159050919050565b611b3481611b1f565b82525050565b6000602082019050611b4f6000830184611b2b565b92915050565b600081519050919050565b600082825260208201905092915050565b60005b83811015611b8f578082015181840152602081019050611b74565b60008484015250505050565b6000601f19601f8301169050919050565b6000611bb782611b55565b611bc18185611b60565b9350611bd1818560208601611b71565b611bda81611b9b565b840191505092915050565b60006020820190508181036000830152611bff8184611bac565b905092915050565b6000819050919050565b611c1a81611c07565b8114611c2557600080fd5b50565b600081359050611c3781611c11565b92915050565b600060208284031215611c5357611c52611a90565b5b6000611c6184828501611c28565b91505092915050565b600073ffffffffffffffffffffffffffffffffffffffff82169050919050565b6000611c9582611c6a565b9050919050565b611ca581611c8a565b82525050565b6000602082019050611cc06000830184611c9c565b92915050565b611ccf81611c8a565b8114611cda57600080fd5b50565b600081359050611cec81611cc6565b92915050565b60008060408385031215611d0957611d08611a90565b5b6000611d1785828601611cdd565b9250506020611d2885828601611c28565b9150509250929050565b600080600060608486031215611d4b57611d4a611a90565b5b6000611d5986828701611cdd565b9350506020611d6a86828701611cdd565b9250506040611d7b86828701611c28565b9150509250925092565b600060208284031215611d9b57611d9a611a90565b5b6000611da984828501611cdd565b91505092915050565b611dbb81611c07565b82525050565b6000602082019050611dd66000830184611db2565b92915050565b611de581611b1f565b8114611df057600080fd5b50565b600081359050611e0281611ddc565b92915050565b60008060408385031215611e1f57611e1e611a90565b5b6000611e2d85828601611cdd565b9250506020611e3e85828601611df3565b9150509250929050565b600080fd5b600080fd5b7f4e487b7100000000000000000000000000000000000000000000000000000000600052604160045260246000fd5b611e8a82611b9b565b810181811067ffffffffffffffff82111715611ea957611ea8611e52565b5b80604052505050565b6000611ebc611a86565b9050611ec88282611e81565b919050565b600067ffffffffffffffff821115611ee857611ee7611e52565b5b611ef182611b9b565b9050602081019050919050565b82818337600083830152505050565b6000611f20611f1b84611ecd565b611eb2565b905082815260208101848484011115611f3c57611f3b611e4d565b5b611f47848285611efe565b509392505050565b600082601f830112611f6457611f63611e48565b5b8135611f74848260208601611f0d565b91505092915050565b60008060008060808587031215611f9757611f96611a90565b5b6000611fa587828801611cdd565b9450506020611fb687828801611cdd565b9350506040611fc787828801611c28565b925050606085013567ffffffffffffffff811115611fe857611fe7611a95565b5b611ff487828801611f4f565b91505092959194509250565b6000806040838503121561201757612016611a90565b5b600061202585828601611cdd565b925050602061203685828601611cdd565b9150509250929050565b7f4e487b7100000000000000000000000000000000000000000000000000000000600052602260045260246000fd5b6000600282049050600182168061208757607f821691505b60208210810361209a57612099612040565b5b50919050565b7f4552433732313a20617070726f76656420717565727920666f72206e6f6e657860008201527f697374656e7420746f6b656e0000000000000000000000000000000000000000602082015250565b60006120fc602c83611b60565b9150612107826120a0565b604082019050919050565b6000602082019050818103600083015261212b816120ef565b9050919050565b7f4552433732313a20617070726f76616c20746f2063757272656e74206f776e6560008201527f7200000000000000000000000000000000000000000000000000000000000000602082015250565b600061218e602183611b60565b915061219982612132565b604082019050919050565b600060208201905081810360008301526121bd81612181565b9050919050565b7f4552433732313a20617070726f76652063616c6c6572206973206e6f74206f7760008201527f6e6572206e6f7220617070726f76656420666f7220616c6c0000000000000000602082015250565b6000612220603883611b60565b915061222b826121c4565b604082019050919050565b6000602082019050818103600083015261224f81612213565b9050919050565b7f4552433732313a207472616e736665722063616c6c6572206973206e6f74206f60008201527f776e6572206e6f7220617070726f766564000000000000000000000000000000602082015250565b60006122b2603183611b60565b91506122bd82612256565b604082019050919050565b600060208201905081810360008301526122e1816122a5565b9050919050565b7f4552433732313a206f776e657220717565727920666f72206e6f6e657869737460008201527f656e7420746f6b656e0000000000000000000000000000000000000000000000602082015250565b6000612344602983611b60565b915061234f826122e8565b604082019050919050565b6000602082019050818103600083015261237381612337565b9050919050565b7f4552433732313a2062616c616e636520717565727920666f7220746865207a6560008201527f726f206164647265737300000000000000000000000000000000000000000000602082015250565b60006123d6602a83611b60565b91506123e18261237a565b604082019050919050565b60006020820190508181036000830152612405816123c9565b9050919050565b7f45524337323155524953746f726167653a2055524920717565727920666f722060008201527f6e6f6e6578697374656e7420746f6b656e000000000000000000000000000000602082015250565b6000612468603183611b60565b91506124738261240c565b604082019050919050565b600060208201905081810360008301526124978161245b565b9050919050565b600081905092915050565b60006124b482611b55565b6124be818561249e565b93506124ce818560208601611b71565b80840191505092915050565b60006124e682856124a9565b91506124f282846124a9565b91508190509392505050565b7f4552433732313a206f70657261746f7220717565727920666f72206e6f6e657860008201527f697374656e7420746f6b656e0000000000000000000000000000000000000000602082015250565b600061255a602c83611b60565b9150612565826124fe565b604082019050919050565b600060208201905081810360008301526125898161254d565b9050919050565b7f4552433732313a207472616e73666572206f6620746f6b656e2074686174206960008201527f73206e6f74206f776e0000000000000000000000000000000000000000000000602082015250565b60006125ec602983611b60565b91506125f782612590565b604082019050919050565b6000602082019050818103600083015261261b816125df565b9050919050565b7f4552433732313a207472616e7366657220746f20746865207a65726f2061646460008201527f7265737300000000000000000000000000000000000000000000000000000000602082015250565b600061267e602483611b60565b915061268982612622565b604082019050919050565b600060208201905081810360008301526126ad81612671565b9050919050565b7f4e487b7100000000000000000000000000000000000000000000000000000000600052601160045260246000fd5b60006126ee82611c07565b91506126f983611c07565b9250828203905081811115612711576127106126b4565b5b92915050565b600061272282611c07565b915061272d83611c07565b9250828201905080821115612745576127446126b4565b5b92915050565b7f4552433732313a206d696e7420746f20746865207a65726f2061646472657373600082015250565b6000612781602083611b60565b915061278c8261274b565b602082019050919050565b600060208201905081810360008301526127b081612774565b9050919050565b7f4552433732313a20746f6b656e20616c7265616479206d696e74656400000000600082015250565b60006127ed601c83611b60565b91506127f8826127b7565b602082019050919050565b6000602082019050818103600083015261281c816127e0565b9050919050565b7f45524337323155524953746f726167653a2055524920736574206f66206e6f6e60008201527f6578697374656e7420746f6b656e000000000000000000000000000000000000602082015250565b600061287f602e83611b60565b915061288a82612823565b604082019050919050565b600060208201905081810360008301526128ae81612872565b9050919050565b60008190508160005260206000209050919050565b60006020601f8301049050919050565b600082821b905092915050565b6000600883026129177fffffffffffffffffffffffffffffffffffffffffffffffffffffffffffffffff826128da565b61292186836128da565b95508019841693508086168417925050509392505050565b6000819050919050565b600061295e61295961295484611c07565b612939565b611c07565b9050919050565b6000819050919050565b61297883612943565b61298c61298482612965565b8484546128e7565b825550505050565b600090565b6129a1612994565b6129ac81848461296f565b505050565b5b818110156129d0576129c5600082612999565b6001810190506129b2565b5050565b601f821115612a15576129e6816128b5565b6129ef846128ca565b810160208510156129fe578190505b612a12612a0a856128ca565b8301826129b1565b50505b505050565b600082821c905092915050565b6000612a3860001984600802612a1a565b1980831691505092915050565b6000612a518383612a27565b9150826002028217905092915050565b612a6a82611b55565b67ffffffffffffffff811115612a8357612a82611e52565b5b612a8d825461206f565b612a988282856129d4565b600060209050601f831160018114612acb5760008415612ab9578287015190505b612ac38582612a45565b865550612b2b565b601f198416612ad9866128b5565b60005b82811015612b0157848901518255600182019150602085019450602081019050612adc565b86831015612b1e5784890151612b1a601f891682612a27565b8355505b6001600288020188555050505b505050505050565b7f4552433732313a20617070726f766520746f2063616c6c657200000000000000600082015250565b6000612b69601983611b60565b9150612b7482612b33565b602082019050919050565b60006020820190508181036000830152612b9881612b5c565b9050919050565b7f4552433732313a207472616e7366657220746f206e6f6e20455243373231526560008201527f63656976657220696d706c656d656e7465720000000000000000000000000000602082015250565b6000612bfb603283611b60565b9150612c0682612b9f565b604082019050919050565b60006020820190508181036000830152612c2a81612bee565b9050919050565b7f4552433732314d657461646174613a2055524920717565727920666f72206e6f60008201527f6e6578697374656e7420746f6b656e0000000000000000000000000000000000602082015250565b6000612c8d602f83611b60565b9150612c9882612c31565b604082019050919050565b60006020820190508181036000830152612cbc81612c80565b9050919050565b600081519050919050565b600082825260208201905092915050565b6000612cea82612cc3565b612cf48185612cce565b9350612d04818560208601611b71565b612d0d81611b9b565b840191505092915050565b6000608082019050612d2d6000830187611c9c565b612d3a6020830186611c9c565b612d476040830185611db2565b8181036060830152612d598184612cdf565b905095945050505050565b600081519050612d7381611ac6565b92915050565b600060208284031215612d8f57612d8e611a90565b5b6000612d9d84828501612d64565b91505092915050565b6000612db182611c07565b91507fffffffffffffffffffffffffffffffffffffffffffffffffffffffffffffffff8203612de357612de26126b4565b5b600182019050919050565b7f4e487b7100000000000000000000000000000000000000000000000000000000600052601260045260246000fd5b6000612e2882611c07565b9150612e3383611c07565b925082612e4357612e42612dee565b5b828204905092915050565b6000612e5982611c07565b9150612e6483611c07565b925082612e7457612e73612dee565b5b828206905092915050565b7f4e487b7100000000000000000000000000000000000000000000000000000000600052603260045260246000fdfea2646970667358221220bfbd6ad45fd86a68e3f6b14b3737912b1096d2a09f03d382840b61d3eb3390ac64736f6c63430008110033",
  "linkReferences": {},
  "deployedLinkReferences": {}
}