{
  "_format": "hh-sol-artifact-1",
  "contractName": "Passport",
  "sourceName": "contracts/Passport.sol",
  "abi": [
    {
      "inputs": [],
      "stateMutability": "nonpayable",
      "type": "constructor"
    },
    {
      "anonymous": false,
      "inputs": [
        {
          "indexed": true,
          "internalType": "address",
          "name": "owner",
          "type": "address"
        },
        {
          "indexed": true,
          "internalType": "address",
          "name": "approved",
          "type": "address"
        },
        {
          "indexed": true,
          "internalType": "uint256",
          "name": "tokenId",
          "type": "uint256"
        }
      ],
      "name": "Approval",
      "type": "event"
    },
    {
      "anonymous": false,
      "inputs": [
        {
          "indexed": true,
          "internalType": "address",
          "name": "owner",
          "type": "address"
        },
        {
          "indexed": true,
          "internalType": "address",
          "name": "operator",
          "type": "address"
        },
        {
          "indexed": false,
          "internalType": "bool",
          "name": "approved",
          "type": "bool"
        }
      ],
      "name": "ApprovalForAll",
      "type": "event"
    },
    {
      "anonymous": false,
      "inputs": [
        {
          "indexed": true,
          "internalType": "address",
          "name": "from",
          "type": "address"
        },
        {
          "indexed": true,
          "internalType": "address",
          "name": "to",
          "type": "address"
        },
        {
          "indexed": true,
          "internalType": "uint256",
          "name": "tokenId",
          "type": "uint256"
        }
      ],
      "name": "Transfer",
      "type": "event"
    },
    {
      "inputs": [
        {
          "internalType": "address",
          "name": "to",
          "type": "address"
        },
        {
          "internalType": "uint256",
          "name": "tokenId",
          "type": "uint256"
        }
      ],
      "name": "approve",
      "outputs": [],
      "stateMutability": "nonpayable",
      "type": "function"
    },
    {
      "inputs": [
        {
          "internalType": "address",
          "name": "owner",
          "type": "address"
        }
      ],
      "name": "balanceOf",
      "outputs": [
        {
          "internalType": "uint256",
          "name": "",
          "type": "uint256"
        }
      ],
      "stateMutability": "view",
      "type": "function"
    },
    {
      "inputs": [
        {
          "internalType": "uint256",
          "name": "passportTokenId",
          "type": "uint256"
        },
        {
          "internalType": "address",
          "name": "countryStampAddress",
          "type": "address"
        },
        {
          "internalType": "address",
          "name": "caller",
          "type": "address"
        }
      ],
      "name": "collectStamp",
      "outputs": [
        {
          "internalType": "uint256",
          "name": "",
          "type": "uint256"
        }
      ],
      "stateMutability": "nonpayable",
      "type": "function"
    },
    {
      "inputs": [
        {
          "internalType": "uint256",
          "name": "tokenId",
          "type": "uint256"
        }
      ],
      "name": "getApproved",
      "outputs": [
        {
          "internalType": "address",
          "name": "",
          "type": "address"
        }
      ],
      "stateMutability": "view",
      "type": "function"
    },
    {
      "inputs": [
        {
          "internalType": "address",
          "name": "owner",
          "type": "address"
        },
        {
          "internalType": "address",
          "name": "operator",
          "type": "address"
        }
      ],
      "name": "isApprovedForAll",
      "outputs": [
        {
          "internalType": "bool",
          "name": "",
          "type": "bool"
        }
      ],
      "stateMutability": "view",
      "type": "function"
    },
    {
      "inputs": [
        {
          "internalType": "address",
          "name": "caller",
          "type": "address"
        },
        {
          "internalType": "string",
          "name": "dataUri",
          "type": "string"
        }
      ],
      "name": "mintPassport",
      "outputs": [
        {
          "internalType": "uint256",
          "name": "",
          "type": "uint256"
        }
      ],
      "stateMutability": "nonpayable",
      "type": "function"
    },
    {
      "inputs": [],
      "name": "name",
      "outputs": [
        {
          "internalType": "string",
          "name": "",
          "type": "string"
        }
      ],
      "stateMutability": "view",
      "type": "function"
    },
    {
      "inputs": [
        {
          "internalType": "uint256",
          "name": "tokenId",
          "type": "uint256"
        }
      ],
      "name": "ownerOf",
      "outputs": [
        {
          "internalType": "address",
          "name": "",
          "type": "address"
        }
      ],
      "stateMutability": "view",
      "type": "function"
    },
    {
      "inputs": [
        {
          "internalType": "address",
          "name": "from",
          "type": "address"
        },
        {
          "internalType": "address",
          "name": "to",
          "type": "address"
        },
        {
          "internalType": "uint256",
          "name": "tokenId",
          "type": "uint256"
        }
      ],
      "name": "safeTransferFrom",
      "outputs": [],
      "stateMutability": "nonpayable",
      "type": "function"
    },
    {
      "inputs": [
        {
          "internalType": "address",
          "name": "from",
          "type": "address"
        },
        {
          "internalType": "address",
          "name": "to",
          "type": "address"
        },
        {
          "internalType": "uint256",
          "name": "tokenId",
          "type": "uint256"
        },
        {
          "internalType": "bytes",
          "name": "_data",
          "type": "bytes"
        }
      ],
      "name": "safeTransferFrom",
      "outputs": [],
      "stateMutability": "nonpayable",
      "type": "function"
    },
    {
      "inputs": [
        {
          "internalType": "address",
          "name": "operator",
          "type": "address"
        },
        {
          "internalType": "bool",
          "name": "approved",
          "type": "bool"
        }
      ],
      "name": "setApprovalForAll",
      "outputs": [],
      "stateMutability": "nonpayable",
      "type": "function"
    },
    {
      "inputs": [
        {
          "internalType": "bytes4",
          "name": "interfaceId",
          "type": "bytes4"
        }
      ],
      "name": "supportsInterface",
      "outputs": [
        {
          "internalType": "bool",
          "name": "",
          "type": "bool"
        }
      ],
      "stateMutability": "view",
      "type": "function"
    },
    {
      "inputs": [],
      "name": "symbol",
      "outputs": [
        {
          "internalType": "string",
          "name": "",
          "type": "string"
        }
      ],
      "stateMutability": "view",
      "type": "function"
    },
    {
      "inputs": [
        {
          "internalType": "uint256",
          "name": "tokenId",
          "type": "uint256"
        }
      ],
      "name": "tokenURI",
      "outputs": [
        {
          "internalType": "string",
          "name": "",
          "type": "string"
        }
      ],
      "stateMutability": "view",
      "type": "function"
    },
    {
      "inputs": [
        {
          "internalType": "address",
          "name": "from",
          "type": "address"
        },
        {
          "internalType": "address",
          "name": "to",
          "type": "address"
        },
        {
          "internalType": "uint256",
          "name": "tokenId",
          "type": "uint256"
        }
      ],
      "name": "transferFrom",
      "outputs": [],
      "stateMutability": "nonpayable",
      "type": "function"
    },
    {
      "inputs": [
        {
          "internalType": "address",
          "name": "",
          "type": "address"
        }
      ],
      "name": "userToPassportId",
      "outputs": [
        {
          "internalType": "uint256",
          "name": "",
          "type": "uint256"
        }
      ],
      "stateMutability": "view",
      "type": "function"
    }
  ],
  "bytecode": "0x60806040523480156200001157600080fd5b506040518060400160405280600881526020017f50617373706f72740000000000000000000000000000000000000000000000008152506040518060400160405280600381526020017f504153000000000000000000000000000000000000000000000000000000000081525081600090816200008f919062000351565b508060019081620000a1919062000351565b505050620000bb6007620000c160201b62000dcb1760201c565b62000438565b6001816000016000828254019250508190555050565b600081519050919050565b7f4e487b7100000000000000000000000000000000000000000000000000000000600052604160045260246000fd5b7f4e487b7100000000000000000000000000000000000000000000000000000000600052602260045260246000fd5b600060028204905060018216806200015957607f821691505b6020821081036200016f576200016e62000111565b5b50919050565b60008190508160005260206000209050919050565b60006020601f8301049050919050565b600082821b905092915050565b600060088302620001d97fffffffffffffffffffffffffffffffffffffffffffffffffffffffffffffffff826200019a565b620001e586836200019a565b95508019841693508086168417925050509392505050565b6000819050919050565b6000819050919050565b6000620002326200022c6200022684620001fd565b62000207565b620001fd565b9050919050565b6000819050919050565b6200024e8362000211565b620002666200025d8262000239565b848454620001a7565b825550505050565b600090565b6200027d6200026e565b6200028a81848462000243565b505050565b5b81811015620002b257620002a660008262000273565b60018101905062000290565b5050565b601f8211156200030157620002cb8162000175565b620002d6846200018a565b81016020851015620002e6578190505b620002fe620002f5856200018a565b8301826200028f565b50505b505050565b600082821c905092915050565b6000620003266000198460080262000306565b1980831691505092915050565b600062000341838362000313565b9150826002028217905092915050565b6200035c82620000d7565b67ffffffffffffffff811115620003785762000377620000e2565b5b62000384825462000140565b62000391828285620002b6565b600060209050601f831160018114620003c95760008415620003b4578287015190505b620003c0858262000333565b86555062000430565b601f198416620003d98662000175565b60005b828110156200040357848901518255600182019150602085019450602081019050620003dc565b868310156200042357848901516200041f601f89168262000313565b8355505b6001600288020188555050505b505050505050565b61322480620004486000396000f3fe608060405234801561001057600080fd5b50600436106101005760003560e01c806370a0823111610097578063b88d4fde11610066578063b88d4fde146102d1578063c87b56dd146102ed578063d238d12a1461031d578063e985e9c51461034d57610100565b806370a082311461023757806378da4ce31461026757806395d89b4114610297578063a22cb465146102b557610100565b806323b872dd116100d357806323b872dd1461019f57806342842e0e146101bb5780636352211e146101d757806364a7536a1461020757610100565b806301ffc9a71461010557806306fdde0314610135578063081812fc14610153578063095ea7b314610183575b600080fd5b61011f600480360381019061011a9190611aea565b61037d565b60405161012c9190611b32565b60405180910390f35b61013d61045f565b60405161014a9190611bdd565b60405180910390f35b61016d60048036038101906101689190611c35565b6104f1565b60405161017a9190611ca3565b60405180910390f35b61019d60048036038101906101989190611cea565b610576565b005b6101b960048036038101906101b49190611d2a565b61068d565b005b6101d560048036038101906101d09190611d2a565b6106ed565b005b6101f160048036038101906101ec9190611c35565b61070d565b6040516101fe9190611ca3565b60405180910390f35b610221600480360381019061021c9190611d7d565b6107be565b60405161022e9190611ddf565b60405180910390f35b610251600480360381019061024c9190611dfa565b61090f565b60405161025e9190611ddf565b60405180910390f35b610281600480360381019061027c9190611f5c565b6109c6565b60405161028e9190611ddf565b60405180910390f35b61029f610ac4565b6040516102ac9190611bdd565b60405180910390f35b6102cf60048036038101906102ca9190611fe4565b610b56565b005b6102eb60048036038101906102e691906120c5565b610b6c565b005b61030760048036038101906103029190611c35565b610bce565b6040516103149190611bdd565b60405180910390f35b61033760048036038101906103329190611dfa565b610d1f565b6040516103449190611ddf565b60405180910390f35b61036760048036038101906103629190612148565b610d37565b6040516103749190611b32565b60405180910390f35b60007f80ac58cd000000000000000000000000000000000000000000000000000000007bffffffffffffffffffffffffffffffffffffffffffffffffffffffff1916827bffffffffffffffffffffffffffffffffffffffffffffffffffffffff1916148061044857507f5b5e139f000000000000000000000000000000000000000000000000000000007bffffffffffffffffffffffffffffffffffffffffffffffffffffffff1916827bffffffffffffffffffffffffffffffffffffffffffffffffffffffff1916145b80610458575061045782610de1565b5b9050919050565b60606000805461046e906121b7565b80601f016020809104026020016040519081016040528092919081815260200182805461049a906121b7565b80156104e75780601f106104bc576101008083540402835291602001916104e7565b820191906000526020600020905b8154815290600101906020018083116104ca57829003601f168201915b5050505050905090565b60006104fc82610e4b565b61053b576040517f08c379a00000000000000000000000000000000000000000000000000000000081526004016105329061225a565b60405180910390fd5b6004600083815260200190815260200160002060009054906101000a900473ffffffffffffffffffffffffffffffffffffffff169050919050565b60006105818261070d565b90508073ffffffffffffffffffffffffffffffffffffffff168373ffffffffffffffffffffffffffffffffffffffff16036105f1576040517f08c379a00000000000000000000000000000000000000000000000000000000081526004016105e8906122ec565b60405180910390fd5b8073ffffffffffffffffffffffffffffffffffffffff16610610610eb7565b73ffffffffffffffffffffffffffffffffffffffff16148061063f575061063e81610639610eb7565b610d37565b5b61067e576040517f08c379a00000000000000000000000000000000000000000000000000000000081526004016106759061237e565b60405180910390fd5b6106888383610ebf565b505050565b61069e610698610eb7565b82610f78565b6106dd576040517f08c379a00000000000000000000000000000000000000000000000000000000081526004016106d490612410565b60405180910390fd5b6106e8838383611056565b505050565b61070883838360405180602001604052806000815250610b6c565b505050565b6000806002600084815260200190815260200160002060009054906101000a900473ffffffffffffffffffffffffffffffffffffffff169050600073ffffffffffffffffffffffffffffffffffffffff168173ffffffffffffffffffffffffffffffffffffffff16036107b5576040517f08c379a00000000000000000000000000000000000000000000000000000000081526004016107ac906124a2565b60405180910390fd5b80915050919050565b60006107c984610e4b565b610808576040517f08c379a00000000000000000000000000000000000000000000000000000000081526004016107ff90612534565b60405180910390fd5b8173ffffffffffffffffffffffffffffffffffffffff166108288561070d565b73ffffffffffffffffffffffffffffffffffffffff161461087e576040517f08c379a0000000000000000000000000000000000000000000000000000000008152600401610875906125c6565b60405180910390fd5b600083905060008173ffffffffffffffffffffffffffffffffffffffff166383534d2d856040518263ffffffff1660e01b81526004016108be9190611ca3565b6020604051808303816000875af11580156108dd573d6000803e3d6000fd5b505050506040513d601f19601f8201168201806040525081019061090191906125fb565b905080925050509392505050565b60008073ffffffffffffffffffffffffffffffffffffffff168273ffffffffffffffffffffffffffffffffffffffff160361097f576040517f08c379a00000000000000000000000000000000000000000000000000000000081526004016109769061269a565b60405180910390fd5b600360008373ffffffffffffffffffffffffffffffffffffffff1673ffffffffffffffffffffffffffffffffffffffff168152602001908152602001600020549050919050565b600080600860008573ffffffffffffffffffffffffffffffffffffffff1673ffffffffffffffffffffffffffffffffffffffff168152602001908152602001600020541115610a4a576040517f08c379a0000000000000000000000000000000000000000000000000000000008152600401610a419061272c565b60405180910390fd5b6000610a5660076112b1565b9050610a626007610dcb565b610a6c84826112bf565b610a76818461148c565b80600860008673ffffffffffffffffffffffffffffffffffffffff1673ffffffffffffffffffffffffffffffffffffffff168152602001908152602001600020819055508091505092915050565b606060018054610ad3906121b7565b80601f0160208091040260200160405190810160405280929190818152602001828054610aff906121b7565b8015610b4c5780601f10610b2157610100808354040283529160200191610b4c565b820191906000526020600020905b815481529060010190602001808311610b2f57829003601f168201915b5050505050905090565b610b68610b61610eb7565b83836114f9565b5050565b610b7d610b77610eb7565b83610f78565b610bbc576040517f08c379a0000000000000000000000000000000000000000000000000000000008152600401610bb390612410565b60405180910390fd5b610bc884848484611665565b50505050565b6060610bd982610e4b565b610c18576040517f08c379a0000000000000000000000000000000000000000000000000000000008152600401610c0f906127be565b60405180910390fd5b6000600660008481526020019081526020016000208054610c38906121b7565b80601f0160208091040260200160405190810160405280929190818152602001828054610c64906121b7565b8015610cb15780601f10610c8657610100808354040283529160200191610cb1565b820191906000526020600020905b815481529060010190602001808311610c9457829003601f168201915b505050505090506000610cc26116c1565b90506000815103610cd7578192505050610d1a565b600082511115610d0c578082604051602001610cf492919061281a565b60405160208183030381529060405292505050610d1a565b610d15846116d8565b925050505b919050565b60086020528060005260406000206000915090505481565b6000600560008473ffffffffffffffffffffffffffffffffffffffff1673ffffffffffffffffffffffffffffffffffffffff16815260200190815260200160002060008373ffffffffffffffffffffffffffffffffffffffff1673ffffffffffffffffffffffffffffffffffffffff16815260200190815260200160002060009054906101000a900460ff16905092915050565b6001816000016000828254019250508190555050565b60007f01ffc9a7000000000000000000000000000000000000000000000000000000007bffffffffffffffffffffffffffffffffffffffffffffffffffffffff1916827bffffffffffffffffffffffffffffffffffffffffffffffffffffffff1916149050919050565b60008073ffffffffffffffffffffffffffffffffffffffff166002600084815260200190815260200160002060009054906101000a900473ffffffffffffffffffffffffffffffffffffffff1673ffffffffffffffffffffffffffffffffffffffff1614159050919050565b600033905090565b816004600083815260200190815260200160002060006101000a81548173ffffffffffffffffffffffffffffffffffffffff021916908373ffffffffffffffffffffffffffffffffffffffff160217905550808273ffffffffffffffffffffffffffffffffffffffff16610f328361070d565b73ffffffffffffffffffffffffffffffffffffffff167f8c5be1e5ebec7d5bd14f71427d1e84f3dd0314c0f7b2291e5b200ac8c7c3b92560405160405180910390a45050565b6000610f8382610e4b565b610fc2576040517f08c379a0000000000000000000000000000000000000000000000000000000008152600401610fb9906128b0565b60405180910390fd5b6000610fcd8361070d565b90508073ffffffffffffffffffffffffffffffffffffffff168473ffffffffffffffffffffffffffffffffffffffff16148061103c57508373ffffffffffffffffffffffffffffffffffffffff16611024846104f1565b73ffffffffffffffffffffffffffffffffffffffff16145b8061104d575061104c8185610d37565b5b91505092915050565b8273ffffffffffffffffffffffffffffffffffffffff166110768261070d565b73ffffffffffffffffffffffffffffffffffffffff16146110cc576040517f08c379a00000000000000000000000000000000000000000000000000000000081526004016110c390612942565b60405180910390fd5b600073ffffffffffffffffffffffffffffffffffffffff168273ffffffffffffffffffffffffffffffffffffffff160361113b576040517f08c379a0000000000000000000000000000000000000000000000000000000008152600401611132906129d4565b60405180910390fd5b61114683838361177f565b611151600082610ebf565b6001600360008573ffffffffffffffffffffffffffffffffffffffff1673ffffffffffffffffffffffffffffffffffffffff16815260200190815260200160002060008282546111a19190612a23565b925050819055506001600360008473ffffffffffffffffffffffffffffffffffffffff1673ffffffffffffffffffffffffffffffffffffffff16815260200190815260200160002060008282546111f89190612a57565b92505081905550816002600083815260200190815260200160002060006101000a81548173ffffffffffffffffffffffffffffffffffffffff021916908373ffffffffffffffffffffffffffffffffffffffff160217905550808273ffffffffffffffffffffffffffffffffffffffff168473ffffffffffffffffffffffffffffffffffffffff167fddf252ad1be2c89b69c2b068fc378daa952ba7f163c4a11628f55a4df523b3ef60405160405180910390a4505050565b600081600001549050919050565b600073ffffffffffffffffffffffffffffffffffffffff168273ffffffffffffffffffffffffffffffffffffffff160361132e576040517f08c379a000000000000000000000000000000000000000000000000000000000815260040161132590612ad7565b60405180910390fd5b61133781610e4b565b15611377576040517f08c379a000000000000000000000000000000000000000000000000000000000815260040161136e90612b43565b60405180910390fd5b6113836000838361177f565b6001600360008473ffffffffffffffffffffffffffffffffffffffff1673ffffffffffffffffffffffffffffffffffffffff16815260200190815260200160002060008282546113d39190612a57565b92505081905550816002600083815260200190815260200160002060006101000a81548173ffffffffffffffffffffffffffffffffffffffff021916908373ffffffffffffffffffffffffffffffffffffffff160217905550808273ffffffffffffffffffffffffffffffffffffffff16600073ffffffffffffffffffffffffffffffffffffffff167fddf252ad1be2c89b69c2b068fc378daa952ba7f163c4a11628f55a4df523b3ef60405160405180910390a45050565b61149582610e4b565b6114d4576040517f08c379a00000000000000000000000000000000000000000000000000000000081526004016114cb90612bd5565b60405180910390fd5b806006600084815260200190815260200160002090816114f49190612da1565b505050565b8173ffffffffffffffffffffffffffffffffffffffff168373ffffffffffffffffffffffffffffffffffffffff1603611567576040517f08c379a000000000000000000000000000000000000000000000000000000000815260040161155e90612ebf565b60405180910390fd5b80600560008573ffffffffffffffffffffffffffffffffffffffff1673ffffffffffffffffffffffffffffffffffffffff16815260200190815260200160002060008473ffffffffffffffffffffffffffffffffffffffff1673ffffffffffffffffffffffffffffffffffffffff16815260200190815260200160002060006101000a81548160ff0219169083151502179055508173ffffffffffffffffffffffffffffffffffffffff168373ffffffffffffffffffffffffffffffffffffffff167f17307eab39ab6107e8899845ad3d59bd9653f200f220920489ca2b5937696c31836040516116589190611b32565b60405180910390a3505050565b611670848484611056565b61167c84848484611784565b6116bb576040517f08c379a00000000000000000000000000000000000000000000000000000000081526004016116b290612f51565b60405180910390fd5b50505050565b606060405180602001604052806000815250905090565b60606116e382610e4b565b611722576040517f08c379a000000000000000000000000000000000000000000000000000000000815260040161171990612fe3565b60405180910390fd5b600061172c6116c1565b9050600081511161174c5760405180602001604052806000815250611777565b806117568461190b565b60405160200161176792919061281a565b6040516020818303038152906040525b915050919050565b505050565b60006117a58473ffffffffffffffffffffffffffffffffffffffff16611a6b565b156118fe578373ffffffffffffffffffffffffffffffffffffffff1663150b7a026117ce610eb7565b8786866040518563ffffffff1660e01b81526004016117f09493929190613058565b6020604051808303816000875af192505050801561182c57506040513d601f19601f8201168201806040525081019061182991906130b9565b60015b6118ae573d806000811461185c576040519150601f19603f3d011682016040523d82523d6000602084013e611861565b606091505b5060008151036118a6576040517f08c379a000000000000000000000000000000000000000000000000000000000815260040161189d90612f51565b60405180910390fd5b805181602001fd5b63150b7a0260e01b7bffffffffffffffffffffffffffffffffffffffffffffffffffffffff1916817bffffffffffffffffffffffffffffffffffffffffffffffffffffffff191614915050611903565b600190505b949350505050565b606060008203611952576040518060400160405280600181526020017f30000000000000000000000000000000000000000000000000000000000000008152509050611a66565b600082905060005b6000821461198457808061196d906130e6565b915050600a8261197d919061315d565b915061195a565b60008167ffffffffffffffff8111156119a05761199f611e31565b5b6040519080825280601f01601f1916602001820160405280156119d25781602001600182028036833780820191505090505b5090505b60008514611a5f576001826119eb9190612a23565b9150600a856119fa919061318e565b6030611a069190612a57565b60f81b818381518110611a1c57611a1b6131bf565b5b60200101907effffffffffffffffffffffffffffffffffffffffffffffffffffffffffffff1916908160001a905350600a85611a58919061315d565b94506119d6565b8093505050505b919050565b600080823b905060008111915050919050565b6000604051905090565b600080fd5b600080fd5b60007fffffffff0000000000000000000000000000000000000000000000000000000082169050919050565b611ac781611a92565b8114611ad257600080fd5b50565b600081359050611ae481611abe565b92915050565b600060208284031215611b0057611aff611a88565b5b6000611b0e84828501611ad5565b91505092915050565b60008115159050919050565b611b2c81611b17565b82525050565b6000602082019050611b476000830184611b23565b92915050565b600081519050919050565b600082825260208201905092915050565b60005b83811015611b87578082015181840152602081019050611b6c565b60008484015250505050565b6000601f19601f8301169050919050565b6000611baf82611b4d565b611bb98185611b58565b9350611bc9818560208601611b69565b611bd281611b93565b840191505092915050565b60006020820190508181036000830152611bf78184611ba4565b905092915050565b6000819050919050565b611c1281611bff565b8114611c1d57600080fd5b50565b600081359050611c2f81611c09565b92915050565b600060208284031215611c4b57611c4a611a88565b5b6000611c5984828501611c20565b91505092915050565b600073ffffffffffffffffffffffffffffffffffffffff82169050919050565b6000611c8d82611c62565b9050919050565b611c9d81611c82565b82525050565b6000602082019050611cb86000830184611c94565b92915050565b611cc781611c82565b8114611cd257600080fd5b50565b600081359050611ce481611cbe565b92915050565b60008060408385031215611d0157611d00611a88565b5b6000611d0f85828601611cd5565b9250506020611d2085828601611c20565b9150509250929050565b600080600060608486031215611d4357611d42611a88565b5b6000611d5186828701611cd5565b9350506020611d6286828701611cd5565b9250506040611d7386828701611c20565b9150509250925092565b600080600060608486031215611d9657611d95611a88565b5b6000611da486828701611c20565b9350506020611db586828701611cd5565b9250506040611dc686828701611cd5565b9150509250925092565b611dd981611bff565b82525050565b6000602082019050611df46000830184611dd0565b92915050565b600060208284031215611e1057611e0f611a88565b5b6000611e1e84828501611cd5565b91505092915050565b600080fd5b600080fd5b7f4e487b7100000000000000000000000000000000000000000000000000000000600052604160045260246000fd5b611e6982611b93565b810181811067ffffffffffffffff82111715611e8857611e87611e31565b5b80604052505050565b6000611e9b611a7e565b9050611ea78282611e60565b919050565b600067ffffffffffffffff821115611ec757611ec6611e31565b5b611ed082611b93565b9050602081019050919050565b82818337600083830152505050565b6000611eff611efa84611eac565b611e91565b905082815260208101848484011115611f1b57611f1a611e2c565b5b611f26848285611edd565b509392505050565b600082601f830112611f4357611f42611e27565b5b8135611f53848260208601611eec565b91505092915050565b60008060408385031215611f7357611f72611a88565b5b6000611f8185828601611cd5565b925050602083013567ffffffffffffffff811115611fa257611fa1611a8d565b5b611fae85828601611f2e565b9150509250929050565b611fc181611b17565b8114611fcc57600080fd5b50565b600081359050611fde81611fb8565b92915050565b60008060408385031215611ffb57611ffa611a88565b5b600061200985828601611cd5565b925050602061201a85828601611fcf565b9150509250929050565b600067ffffffffffffffff82111561203f5761203e611e31565b5b61204882611b93565b9050602081019050919050565b600061206861206384612024565b611e91565b90508281526020810184848401111561208457612083611e2c565b5b61208f848285611edd565b509392505050565b600082601f8301126120ac576120ab611e27565b5b81356120bc848260208601612055565b91505092915050565b600080600080608085870312156120df576120de611a88565b5b60006120ed87828801611cd5565b94505060206120fe87828801611cd5565b935050604061210f87828801611c20565b925050606085013567ffffffffffffffff8111156121305761212f611a8d565b5b61213c87828801612097565b91505092959194509250565b6000806040838503121561215f5761215e611a88565b5b600061216d85828601611cd5565b925050602061217e85828601611cd5565b9150509250929050565b7f4e487b7100000000000000000000000000000000000000000000000000000000600052602260045260246000fd5b600060028204905060018216806121cf57607f821691505b6020821081036121e2576121e1612188565b5b50919050565b7f4552433732313a20617070726f76656420717565727920666f72206e6f6e657860008201527f697374656e7420746f6b656e0000000000000000000000000000000000000000602082015250565b6000612244602c83611b58565b915061224f826121e8565b604082019050919050565b6000602082019050818103600083015261227381612237565b9050919050565b7f4552433732313a20617070726f76616c20746f2063757272656e74206f776e6560008201527f7200000000000000000000000000000000000000000000000000000000000000602082015250565b60006122d6602183611b58565b91506122e18261227a565b604082019050919050565b60006020820190508181036000830152612305816122c9565b9050919050565b7f4552433732313a20617070726f76652063616c6c6572206973206e6f74206f7760008201527f6e6572206e6f7220617070726f76656420666f7220616c6c0000000000000000602082015250565b6000612368603883611b58565b91506123738261230c565b604082019050919050565b600060208201905081810360008301526123978161235b565b9050919050565b7f4552433732313a207472616e736665722063616c6c6572206973206e6f74206f60008201527f776e6572206e6f7220617070726f766564000000000000000000000000000000602082015250565b60006123fa603183611b58565b91506124058261239e565b604082019050919050565b60006020820190508181036000830152612429816123ed565b9050919050565b7f4552433732313a206f776e657220717565727920666f72206e6f6e657869737460008201527f656e7420746f6b656e0000000000000000000000000000000000000000000000602082015250565b600061248c602983611b58565b915061249782612430565b604082019050919050565b600060208201905081810360008301526124bb8161247f565b9050919050565b7f50617373706f72743a20496e76616c69642070617373706f7274546f6b656e4960008201527f6400000000000000000000000000000000000000000000000000000000000000602082015250565b600061251e602183611b58565b9150612529826124c2565b604082019050919050565b6000602082019050818103600083015261254d81612511565b9050919050565b7f50617373706f72743a2043616c6c6572206e6f74206f776e6572206f6620706160008201527f7373706f7274546f6b656e496400000000000000000000000000000000000000602082015250565b60006125b0602d83611b58565b91506125bb82612554565b604082019050919050565b600060208201905081810360008301526125df816125a3565b9050919050565b6000815190506125f581611c09565b92915050565b60006020828403121561261157612610611a88565b5b600061261f848285016125e6565b91505092915050565b7f4552433732313a2062616c616e636520717565727920666f7220746865207a6560008201527f726f206164647265737300000000000000000000000000000000000000000000602082015250565b6000612684602a83611b58565b915061268f82612628565b604082019050919050565b600060208201905081810360008301526126b381612677565b9050919050565b7f70617373706f727420616c726561647920657869737420666f7220746869732060008201527f6164647265737300000000000000000000000000000000000000000000000000602082015250565b6000612716602783611b58565b9150612721826126ba565b604082019050919050565b6000602082019050818103600083015261274581612709565b9050919050565b7f45524337323155524953746f726167653a2055524920717565727920666f722060008201527f6e6f6e6578697374656e7420746f6b656e000000000000000000000000000000602082015250565b60006127a8603183611b58565b91506127b38261274c565b604082019050919050565b600060208201905081810360008301526127d78161279b565b9050919050565b600081905092915050565b60006127f482611b4d565b6127fe81856127de565b935061280e818560208601611b69565b80840191505092915050565b600061282682856127e9565b915061283282846127e9565b91508190509392505050565b7f4552433732313a206f70657261746f7220717565727920666f72206e6f6e657860008201527f697374656e7420746f6b656e0000000000000000000000000000000000000000602082015250565b600061289a602c83611b58565b91506128a58261283e565b604082019050919050565b600060208201905081810360008301526128c98161288d565b9050919050565b7f4552433732313a207472616e73666572206f6620746f6b656e2074686174206960008201527f73206e6f74206f776e0000000000000000000000000000000000000000000000602082015250565b600061292c602983611b58565b9150612937826128d0565b604082019050919050565b6000602082019050818103600083015261295b8161291f565b9050919050565b7f4552433732313a207472616e7366657220746f20746865207a65726f2061646460008201527f7265737300000000000000000000000000000000000000000000000000000000602082015250565b60006129be602483611b58565b91506129c982612962565b604082019050919050565b600060208201905081810360008301526129ed816129b1565b9050919050565b7f4e487b7100000000000000000000000000000000000000000000000000000000600052601160045260246000fd5b6000612a2e82611bff565b9150612a3983611bff565b9250828203905081811115612a5157612a506129f4565b5b92915050565b6000612a6282611bff565b9150612a6d83611bff565b9250828201905080821115612a8557612a846129f4565b5b92915050565b7f4552433732313a206d696e7420746f20746865207a65726f2061646472657373600082015250565b6000612ac1602083611b58565b9150612acc82612a8b565b602082019050919050565b60006020820190508181036000830152612af081612ab4565b9050919050565b7f4552433732313a20746f6b656e20616c7265616479206d696e74656400000000600082015250565b6000612b2d601c83611b58565b9150612b3882612af7565b602082019050919050565b60006020820190508181036000830152612b5c81612b20565b9050919050565b7f45524337323155524953746f726167653a2055524920736574206f66206e6f6e60008201527f6578697374656e7420746f6b656e000000000000000000000000000000000000602082015250565b6000612bbf602e83611b58565b9150612bca82612b63565b604082019050919050565b60006020820190508181036000830152612bee81612bb2565b9050919050565b60008190508160005260206000209050919050565b60006020601f8301049050919050565b600082821b905092915050565b600060088302612c577fffffffffffffffffffffffffffffffffffffffffffffffffffffffffffffffff82612c1a565b612c618683612c1a565b95508019841693508086168417925050509392505050565b6000819050919050565b6000612c9e612c99612c9484611bff565b612c79565b611bff565b9050919050565b6000819050919050565b612cb883612c83565b612ccc612cc482612ca5565b848454612c27565b825550505050565b600090565b612ce1612cd4565b612cec818484612caf565b505050565b5b81811015612d1057612d05600082612cd9565b600181019050612cf2565b5050565b601f821115612d5557612d2681612bf5565b612d2f84612c0a565b81016020851015612d3e578190505b612d52612d4a85612c0a565b830182612cf1565b50505b505050565b600082821c905092915050565b6000612d7860001984600802612d5a565b1980831691505092915050565b6000612d918383612d67565b9150826002028217905092915050565b612daa82611b4d565b67ffffffffffffffff811115612dc357612dc2611e31565b5b612dcd82546121b7565b612dd8828285612d14565b600060209050601f831160018114612e0b5760008415612df9578287015190505b612e038582612d85565b865550612e6b565b601f198416612e1986612bf5565b60005b82811015612e4157848901518255600182019150602085019450602081019050612e1c565b86831015612e5e5784890151612e5a601f891682612d67565b8355505b6001600288020188555050505b505050505050565b7f4552433732313a20617070726f766520746f2063616c6c657200000000000000600082015250565b6000612ea9601983611b58565b9150612eb482612e73565b602082019050919050565b60006020820190508181036000830152612ed881612e9c565b9050919050565b7f4552433732313a207472616e7366657220746f206e6f6e20455243373231526560008201527f63656976657220696d706c656d656e7465720000000000000000000000000000602082015250565b6000612f3b603283611b58565b9150612f4682612edf565b604082019050919050565b60006020820190508181036000830152612f6a81612f2e565b9050919050565b7f4552433732314d657461646174613a2055524920717565727920666f72206e6f60008201527f6e6578697374656e7420746f6b656e0000000000000000000000000000000000602082015250565b6000612fcd602f83611b58565b9150612fd882612f71565b604082019050919050565b60006020820190508181036000830152612ffc81612fc0565b9050919050565b600081519050919050565b600082825260208201905092915050565b600061302a82613003565b613034818561300e565b9350613044818560208601611b69565b61304d81611b93565b840191505092915050565b600060808201905061306d6000830187611c94565b61307a6020830186611c94565b6130876040830185611dd0565b8181036060830152613099818461301f565b905095945050505050565b6000815190506130b381611abe565b92915050565b6000602082840312156130cf576130ce611a88565b5b60006130dd848285016130a4565b91505092915050565b60006130f182611bff565b91507fffffffffffffffffffffffffffffffffffffffffffffffffffffffffffffffff8203613123576131226129f4565b5b600182019050919050565b7f4e487b7100000000000000000000000000000000000000000000000000000000600052601260045260246000fd5b600061316882611bff565b915061317383611bff565b9250826131835761318261312e565b5b828204905092915050565b600061319982611bff565b91506131a483611bff565b9250826131b4576131b361312e565b5b828206905092915050565b7f4e487b7100000000000000000000000000000000000000000000000000000000600052603260045260246000fdfea2646970667358221220c4a8f44acddacdd7ef25e379bcbd99e23a15973ddd6357e56905a00cc8de980a64736f6c63430008110033",
  "linkReferences": {},
  "deployedLinkReferences": {}
}